{
  "contractName": "Visit",
  "abi": [
    {
      "constant": false,
      "inputs": [],
      "name": "getTotalCount",
      "outputs": [
        {
          "name": "",
          "type": "uint256"
        }
      ],
      "payable": false,
      "stateMutability": "nonpayable",
      "type": "function"
    },
    {
      "constant": false,
      "inputs": [
        {
          "name": "sender",
          "type": "address"
        }
      ],
      "name": "getMemberInfo",
      "outputs": [
        {
          "name": "",
          "type": "uint256"
        }
      ],
      "payable": false,
      "stateMutability": "nonpayable",
      "type": "function"
    },
    {
      "constant": false,
      "inputs": [],
      "name": "visit",
      "outputs": [],
      "payable": false,
      "stateMutability": "nonpayable",
      "type": "function"
    }
  ],
  "bytecode": "0x608060405234801561001057600080fd5b50610317806100206000396000f300608060405260043610610057576000357c0100000000000000000000000000000000000000000000000000000000900463ffffffff1680630cc4330c1461005c57806356d42bb3146100735780635f1231ea1461009e575b600080fd5b34801561006857600080fd5b506100716100f5565b005b34801561007f57600080fd5b5061008861025d565b6040518082815260200191505060405180910390f35b3480156100aa57600080fd5b506100df600480360381019080803573ffffffffffffffffffffffffffffffffffffffff16906020019092919050505061026a565b6040518082815260200191505060405180910390f35b6100fd6102d7565b60008060003373ffffffffffffffffffffffffffffffffffffffff1673ffffffffffffffffffffffffffffffffffffffff16815260200190815260200160002060000154111561019c5760016000803373ffffffffffffffffffffffffffffffffffffffff1673ffffffffffffffffffffffffffffffffffffffff1681526020019081526020016000206000016000828254019250508190555061025a565b60013390806001815401808255809150509060018203906000526020600020016000909192909190916101000a81548173ffffffffffffffffffffffffffffffffffffffff021916908373ffffffffffffffffffffffffffffffffffffffff160217905550506001816000018181525050806000803373ffffffffffffffffffffffffffffffffffffffff1673ffffffffffffffffffffffffffffffffffffffff168152602001908152602001600020600082015181600001559050505b50565b6000600180549050905090565b60006102746102d7565b6000808473ffffffffffffffffffffffffffffffffffffffff1673ffffffffffffffffffffffffffffffffffffffff1681526020019081526020016000206020604051908101604052908160008201548152505090508060000151915050919050565b6020604051908101604052806000815250905600a165627a7a72305820714587157b1383fa60e59627f627e2007162b6bf7dcb1950b051cff4d5a9aa760029",
  "source": "pragma solidity ^0.4.24;\r\n//pragma experimental ABIEncoderV2;\r\n\r\ncontract Visit {\r\n    struct Member{\r\n        uint count;\r\n    }\r\n    mapping(address => Member) member_map;\r\n    address[] members;\r\n    \r\n    function getTotalCount() public returns (uint){\r\n        return members.length;\r\n    }\r\n\r\n    function getMemberInfo(address sender) public returns (uint){\r\n        Member memory m = member_map[sender];\r\n        return m.count;\r\n    }\r\n\r\n   function visit() public{\r\n\r\n       if(member_map[msg.sender].count > 0){\r\n           member_map[msg.sender].count += 1;\r\n       }else{\r\n       members.push(msg.sender);\r\n       Member memory m;\r\n       m.count = 1;\r\n       member_map[msg.sender] = m;\r\n       }\r\n   }\r\n}",
  "sourcePath": "C:\\dev\\klaytn\\visitor\\contracts\\Visit.sol",
  "compiler": {
    "name": "solc",
    "version": "0.4.25+commit.59dbf8f1.Emscripten.clang"
  },
  "schemaVersion": "2.0.2",
  "updatedAt": "2019-08-07T04:33:13.980Z"
}